:020000040800F2
:10000000600A0020190200084F1C0008471C000865
:100010004B1C0008DB1A00088D31000800000000AE
:100020000000000000000000000000003D3000085B
:10003000DF1A0008000000001B300008293100080A
:1000400033020008330200083302000833020008BC
:1000500033020008330200083302000833020008AC
:10006000330200083302000833020008330200089C
:10007000330200083302000833020008330200088C
:10008000330200083302000833020008330200087C
:10009000330200083302000833020008330200086C
:1000A000330200083302000833020008330200085C
:1000B000330200083302000833020008330200084C
:1000C000330200083302000833020008330200083C
:1000D000330200083302000833020008330200082C
:1000E00033020008330200083302000800F002F86F
:1000F00000F082F80AA090E8000C82448344AAF140
:100100000107DA4501D100F077F8AFF2090EBAE83D
:100110000F0013F0010F18BFFB1A43F0010318473B
:100120003C5200004C520000002300240025002611
:10013000103A28BF78C1FBD8520728BF30C148BF4A
:100140000B6070476E2900F07B81702900F0BD8242
:10015000662904F01283652904F00F83672904F0EF
:100160000C83612904F00B8303681B0A28BF41F04C
:100170008001692900F02881642900F02581752912
:1001800000F022816F2900F04A82782900F08982EC
:10019000E92900F0E581E42900F0E281F52900F089
:1001A000DF81EF2900F04782F82900F08882036898
:1001B000DB0928BF41F08001632900F08B87732998
:1001C00000F09087E32900F09B87F32900F0A087D7
:1001D000002070471FB500F0F1FF0400002000214F
:1001E00003F0ACFB401C60600020002103F090FB9A
:1001F000E0601FBD10B510BD00F0B2FF1146FFF763
:10020000E9FF03F013FA01F08FF803B4FFF7F2FFF0
:1002100003BC01F093F800000948804709480047F3
:10022000FEE7FEE7FEE7FEE7FEE7FEE7FEE7FEE7A6
:10023000FEE7FEE704480549054A064B7047000003
:100240002D310008ED00000860040020600A002045
:1002500060060020600600201CB50C46064B7B445F
:1002600069460090204600F004F9044600206946E3
:1002700000F012F920461CBD370200004FF0013C8F
:1002800050F8042B51F8043B9A4221D1A2EB0C0305
:10029000934313EACC1317D150F8042B51F8043BC5
:1002A0009A4215D1A2EB0C03934313EACC130BD162
:1002B00050F8042B51F8043B9A4209D1A2EB0C03ED
:1002C000934313EACC13DBD04FF00000704700BF1C
:1002D000D01A01BAB1FA81F101F0180122FA01F045
:1002E000CB40C1F12001DBB2C0B2C01A2CFA01F33D
:1002F000D11A914311EAC311E6D170477047704794
:10030000704770B5044685690068C10601D530267E
:1003100000E02026C00707D070BDD4E90121304697
:100320009047206A401C20626D1EF6D570BD70B5E6
:10033000044685690078C00707D170BDD4E9012162
:1003400020209047206A401C20626D1EF6D570BDAB
:1003500009684A0501D540B27047C905FCD500B20D
:10036000704709684A0501D5C0B27047C905FCD578
:1003700080B2704770B50C460546012A05D0287832
:10038000800600D5EA69002302E0012305E05B1C3A
:10039000934202D2E05C0028F9D1A869E618C01A9D
:1003A000A861286A184428622846FFF7AAFF04E0DB
:1003B000D5E9012114F8010B9047B442F8D328463F
:1003C000FFF7B5FF70BD00002DE9F041064600249F
:1003D00010687529314616A510D0FFF7B9FF00281F
:1003E00002DA404213A507E031688A0701D512A559
:1003F00002E0490704D511A5012401E0FFF7B1FF90
:1004000000210A2206F1240709E0B0FBF2FCB0FB50
:10041000F2F302FB1C00303078541846491C0028C7
:10042000F3D123462A463046BDE8F04100F061BAD8
:10043000000000002D0000002B0000002000000044
:1004400011680268006A530501D508700AE0D305F7
:1004500001D5088006E0130603D5C217C1E90002E2
:1004600000E008600120704701694A1C02610878B9
:10047000704700B58FB0CDE90131002105910549E4
:100480007944CDE903101146684600F029F90FB010
:1004900000BD0000E5FFFFFF0A6802F8010B0A60DB
:1004A000704700002DE9FF5F15468A460446DFF8D5
:1004B000AC80F8440027D8E900103E46CDE9001092
:1004C00010E03AF816106A4602A800F025FE411C1A
:1004D00007D02178890603D5E269391891420DD8F1
:1004E0000744761C2078800602D5E069B84205DD15
:1004F000AE42E6DB3AF816000028E2D1A069C01B44
:10050000A0612046FFF7FDFED8E90010CDE90010FC
:10051000002017E03AF818106A4602A800F0FCFD27
:10052000B0F1FF3F81460BD000250DF1080B05E02F
:10053000D4E901211BF8050090476D1C4D45F7D308
:1005400008F10100B0428046E4DB206A38442062B2
:100550002046FFF7ECFEBDE8FF9F0000024D0000C3
:100560002DE9F0418046D21D22F007020025D2E994
:100570000002F52915A614D0011E72F1000106DA59
:100580000023D0EB030063EB020211A608E0D8F8C9
:1005900000108B0701D50FA602E0490701D50EA672
:1005A00001251146002408F1240704E000F05CF95D
:1005B00030323A55641C50EA0102F7D12B463246DC
:1005C00021464046BDE8F04100F093B9000000002C
:1005D0002D0000002B0000002000000030B400219E
:1005E00000F1240408E002F00705D208303542EAA1
:1005F0004372DB086554491C52EA0305F3D10468D1
:10060000002310A2250707D5A40600D421B1C46990
:1006100001230DA2641EC46130BC00F06AB910B59C
:10062000044621461068FFF79CFE02462046BDE8BE
:1006300010400023D2E7D21D22F00701D1E90023A8
:10064000CCE700000000000030000000F0B40D46D0
:100650000188090502D5214C7C4402E01F4C7C44F2
:100660000E34002100F1240608E002F00F07120901
:10067000E75D42EA03721B097754491C52EA0307FB
:10068000F3D102780023120704D5702D06D009B1EA
:10069000022311342246F0BC00F02BB901231034A0
:1006A000F8E770B504460D4621461068FFF759FE7D
:1006B000024629462046BDE870400023C6E7D21D09
:1006C00022F00703D3E90023C0E70368126843F070
:1006D000200303600823C3610023B7E7644B0000D5
:1006E0002DE9F05F894604464FF0000ADFF874B147
:1006F000FB44C0F820A02046E1688847002874D059
:10070000252806D0D4E901219047206A401C2062A8
:10071000F1E700265F462046E16888472028054625
:1007200007DB312D05D2781910F8200C08B10643EB
:10073000F1E7B00701D526F00406C4F81CA0002795
:10074000C4F818A02A2D09D0284602F097FD38B326
:1007500004EB8708303DC8F8185019E059F8041B1D
:10076000204604EB87029161E1688847012F054626
:1007700018D1E069002820DA26F020061DE0D8F81C
:10078000180000EB800005EB40003038C8F8180076
:100790002046E1688847054602F070FD0028EED14A
:1007A000012F0AD02E2D08D12046E16888477F1CF2
:1007B0000546022F46F02006C4DBA069002803DAB4
:1007C000404246F00106A061F00701D026F0100675
:1007D0006C2D0BD0682D09D04C2D39D06A2D35D019
:1007E000742D35D07A2D33D016E038E0E1682F46ED
:1007F00020468847B842054609D16C2F26D04FF4D1
:100800008060E168064320468847054604E06C2F77
:100810001AD04FF4807006430DB3A5F1410019289A
:1008200002D8203546F400664A462946204626600E
:100830004E46FFF787FC80B101280BD0F61D26F04D
:10084000070000F1080956E74020E4E78020D8E7D8
:100850000020D6E706F104094DE7284652E7206A52
:10086000BDE8F09FF44A000030B5B0F10A024FEA4B
:10087000900E71F100034EEA817EB0EB0E0061EB49
:1008800091014FEA101E4EEA017E10EB0E0041EB83
:1008900011114FEA102E4EEA016E10EB0E0041EBE3
:1008A00011214FEA104E4EEA014E10EB0E0041EBC3
:1008B0001141401841F100014FEAD00040EA417077
:1008C0004FEAD10110EB80054FEA810444EA9074AD
:1008D00044EB01046D1944EB0404521BA3414FF097
:1008E000000348BF0A3200D530BD401C41F1000171
:1008F00030BD2DE9F0470D4699469246044600F179
:1009000024080168880604D5E06921F010012160FF
:1009100000E00120A84201DD471B00E00027A1699B
:100920007A1902EB0900081AA0612078C00602D4E7
:100930002046FFF7E6FC002608E0D4E901211AF87A
:1009400006009047206A401C761C20624E45F4DB6E
:100950002078C0060AD52046FFF7D3FC06E0D4E98C
:10096000012130209047206A401C2062381EA7F1E8
:100970000107F4DC07E0D4E9012118F805009047ED
:10098000206A401C2062281EA5F10105F3DC2046E8
:10099000FFF7CDFC2078000602D50220BDE8F087E5
:1009A0000120FBE770472DE9FF4F0C461E464FF034
:1009B000FF378BB0D2E90001DDF860800A908A46EB
:1009C000C1F30A5505B93D46002108464FF0000025
:1009D000BAF1000F00F4400005DA00EB80004FF49C
:1009E000400101EA50004FEA9059B9F1010F00DDD2
:1009F000B9460A9850EA4A000ED044F61050A5F2C3
:100A0000FF3545432F14B8F1000F1ED07542291E43
:100A10001EDDC9F100021CE0B8F1010F4FF000002B
:100A200001D0302103E0F24305E02154401CB042E4
:100A3000FBDB30460022002121540B99C1F80880CD
:100A4000C1E900200FB0BDE8F08FBD1B6D1CDEE7D3
:100A50004A4600DA694206A800F0F4FB06AB93E8C8
:100A6000070003AB83E8070050460A9900F06DFCCD
:100A70008DE80700A0F500501F3800900398002D66
:100A80000ADD42F21F014A460844002303A90390ED
:100A9000684600F0D6FE09E0A0F500504A461F382F
:100AA000002303A90390684600F0E0FE8DE80700EC
:100AB0000004000C03D04FF0FF30410800E0104666
:100AC000B8F1000F03D00022009215461EE0751EFB
:100AD00005D4FFF7C9FE303262556D1EF9D5B34615
:100AE0000122084302D000227F1C04E02078302835
:100AF00001D100227F1E002A099784D01DE0112D0C
:100B000007DAFFF7B1FE303262556D1C50EA010280
:100B1000F5D1084302D00098C8B10EE00021681E4C
:100B200005E0235C625C63542254401E491C8142F0
:100B3000F7DBAB46A81B401E0990002004F80B0011
:100B40000B98099AC0F80880C0E9002B7AE71126B3
:100B50004FF0000857E72DE9F04F88460446D21DB4
:100B600022F0070191B0D1E90001CDE90A0102F0BC
:100B70000FFB02460B98C00F01D02D2007E0206824
:100B8000810701D52B2002E0202101EAC000032AC1
:100B9000099001D0072A05DB03464146204600F0B4
:100BA00011FB0BE12078800601D5E06900E006200A
:100BB000B8F1650F814606D0B8F1660F18D0B8F1CC
:100BC000670F70D131E00020B9F1110F009001DB07
:100BD000112301E009F101030AAA01A90CA8FFF7FA
:100BE000E2FEDDE90C70002609F10105834647E0CD
:100BF00001204B4600904FF000470AAA01A90CA81B
:100C0000FFF7D1FEDDE90DB00C995D46002610B965
:100C100009F101000D18B9EB050003D4C0F1FF364E
:100C200009F10105A5EB09002BE0B9F1010F01DA8B
:100C30004FF001090020B9F1110F0090484601DD85
:100C4000112300E003460AAA01A90CA8FFF7ABFE96
:100C5000DDE90C704D4600268346207800070AD453
:100C6000AB4500DA5D4601A8012D04DD411911F8FC
:100C7000011C302907D04F4502DA17F1040F04DABE
:100C8000012082460FE06D1EEEE7002F02DCED1B17
:100C90003E4403E0781CA84200DD7D1CB81B00F137
:100CA000010A4FF000472078000703D4AA4501DB72
:100CB0004FF0FF3A0021B7F1004F0DF143088DF8D6
:100CC000431024D002202B23002F01DA7F422D2352
:100CD0000A21021EA0F1010000DC5FB197FBF1FCCC
:100CE00097FBF1F201FB1C7C17460CF1300C08F865
:100CF00001CDEEE7A8F1010003702188090501D5B7
:100D0000452100E06521A0F1010800F8011C0998C7
:100D10000FA9A1EB0807FF1D00B10120411901EB4C
:100D2000EA70A1693844081A401EA0612078C00604
:100D300002D42046FFF7E5FA099828B1D4E9012149
:100D40009047206A401C20622078C00622D52046A9
:100D5000FFF7D7FA1EE0002E04DBB34502DD01A841
:100D6000805D00E03020D4E901219047206A401CDA
:100D70002062761CAAF101005FEA000A0AD100F0A5
:100D80001DFAC0680168405CD4E901219047206ADF
:100D9000401C2062281EA5F10105DCDC07E0D4E937
:100DA000012118F8010B9047206A401C2062381E70
:100DB000A7F10107F3DC2046FFF7B9FA032011B0D1
:100DC00041E600002DE9F04F04460D46D21D22F009
:100DD000070089B0D0E900974846394602F0D8F9B3
:100DE0000246F80F01D02D2307E02068810701D5C6
:100DF0002B2302E0202101EAC0038DF820300BB143
:100E0000012000E00020032A824601D0072A04DBEB
:100E10002946204600F0D6F93FE12078800601D42B
:100E20000D2500E0E569C7F30A560D2D49DA0021CA
:100E30004FEA175B08464FF00000002F00F4400017
:100E400007DA00EB80004FF4400100EBD07001EABC
:100E500060008115012901DD4FF0FF3100224FEACA
:100E6000850CBCF1180F06D31346ACF118004FF0F7
:100E70008052C24003E04FF4801323FA0CF30CF1CC
:100E80000C0CBCF1200F04D3ACF1200C09FA0CF0CF
:100E900001E007FA0CF000294FF0004801DD18B915
:100EA0000FE00ED140450CD319EB02095F4121B987
:100EB000404502D19F4329EA0209BBEB175F00D0EE
:100EC000761C2088000502D57B48784402E07A48E9
:100ED0007844193808AA302302F80A30037C0AF152
:100EE0000101002E0AF1020A53546A4602DC4FF057
:100EF000300101E04FF031014FF001088DF8001092
:100F000002D0A6F2FF3603E059EA470100D06B4E4B
:100F1000002D02DC2178090704D54FF002082E21AC
:100F20008DF80110C44600210BE0C7F303433F01D5
:100F3000C35C491C6D1E02F80830052908F1010840
:100F400001DA002DF1DC00210CE000EB1973491CE3
:100F50001B786D1E082902F808304FEA091908F1BC
:100F6000010801DA002DF0DC21688B0602D516E0BD
:100F7000A8F10108E04505DD02EB080313F8013C88
:100F8000302BF5D0B8F1000F09DD02EB080313F8A0
:100F9000013C2E2B03D1090701D4A8F10108002D33
:100FA00005DD3E2102F808106D1E08F10108407CA5
:100FB000002E02F8080008F1010804DA2D2076421C
:100FC00002F8080002E02B2002F808000A214FF482
:100FD0007A70864208F101080BDB96FBF0F33033A0
:100FE00002F8083096FBF0F308F1010800FB1366E5
:100FF00001E0642E0CDB642096FBF0F3303302F842
:10100000083096FBF0F308F1010800FB136601E0DD
:101010000A2E06DB96FBF1F0303002F8080008F1EA
:10102000010896FBF1F001FB1060303002F8080077
:10103000A16908F1010808EB050202EB0A00081A91
:10104000A0612078C00602D42046FFF75AF9216A31
:1010500008AE01EB0A00206204E0D4E9012116F891
:10106000010B9047BAF1010AF7D22078C00602D5E9
:101070002046FFF746F96E4609E016F8010B3E28B8
:101080000FD0D4E901219047206A401C2062B8F1BA
:101090000108F2D22046FFF74AF909B00320BDE863
:1010A000F08F206A2844206203E0D4E90121302037
:1010B00090476D1EEBD3F8E7E543000002FCFFFF0D
:1010C00010B5436913B1AFF3008001E0FFF752F9A7
:1010D000012010BD127800F124010A7000224A702C
:1010E0000122EDE711684FF0FF32E9E710B54369DF
:1010F00013B1AFF3008001E0FFF7D4F9012010BD78
:10110000128800F1240182840022C2840122EDE7CA
:1011100011684FF0FF32E9E770B516460C460546F8
:1011200000F044F8036893F80101012806D0FF2C71
:101130000FD8185D68B101202C7070BDD3F807017D
:101140003246214603F2071303442846BDE87040A7
:1011500018474FF0FF3070BD004870470004002072
:101160007546FFF7F9FFAE4605006946534620F085
:101170000700854618B020B5FFF75CF8BDE82040B1
:101180004FF000064FF000074FF000084FF0000B43
:1011900021F00701AC46ACE8C009ACE8C009ACE8F6
:1011A000C009ACE8C0098D467047000010B500F0DA
:1011B00005F8001D10BD00BF8527000000487047DE
:1011C000200400202DE9F0411F4604460326016853
:1011D000072A01F4006004DB08B116A505E016A596
:1011E00003E008B115A500E015A521F0100020606E
:1011F000A069C01EA0610FB1401EA0612046FFF78C
:1012000080F84FB1D4E9012138469047206A401C4C
:101210002062C01C206206E0206AFAE7D4E90121BE
:1012200015F8010B9047761EF8D22046FFF77FF89D
:10123000BDE8F0814E414E006E616E00494E4600A1
:10124000696E66002DE9F047814616468AB035483A
:1012500078440DC88DE80D0032487844801C03ACFA
:101260000DC884E80D0041F69B300844372190FBFF
:10127000F1F290FBF1F5A5F1800501FB12041B3C96
:1012800002D56442012000E00020DFF898A08046EB
:101290000027FA44AAF1BE0A0EE0E0070AD032465F
:1012A000684607EB470101230AEB810100F0DEFAF3
:1012B0008DE8070064107F1C002CEED1194F7F448D
:1012C000AE3F19E0E80715D007EB04100DF1180A3E
:1012D00090E80E008AE80E00C068F04201D198192B
:1012E00008903246012306A903A800F0BFFA03AB19
:1012F00083E807006D10641C002DE3D14FF001035B
:1013000032466946B8F1000F03A802D000F099FAFE
:1013100001E000F0ABFAC9E90001C9F808200AB001
:10132000BDE8F087F040000010B50446AFF3008040
:101330002046BDE81040FEF768BF000001491820B4
:10134000ABBEFEE72600020070475FEA400C08BF14
:1013500091F0000F4FEA8C234FEAC12243EA51512A
:101360004FEA1C5018BF00F5F0404FEA300018BF9C
:1013700041F000415FEA6C5C00F02980BCF1FF3F66
:1013800008BF40F080407047130C06BF12044FF0B6
:10139000100C4FF0000C130E04BF12020CF1080CDD
:1013A000130F04BF12010CF1040C930F04BF920041
:1013B0000CF1020CD30F04BF52000CF1010C1146CA
:1013C0004FF00002A0F11F00A0EB0C00704711F0DD
:1013D000004F08BF704731F000413FF4D5AF0B0C10
:1013E00006BF09044FF0100C4FF0000C0B0E04BFA9
:1013F00009020CF1080C0B0F04BF09010CF1040CDD
:101400008B0F04BF89000CF1020CCB0F04BF490005
:101410000CF1010CCCF12003A0EB0C0022FA03F339
:1014200002FA0CF241EA030100F10100704720F0DA
:101430007F4C80EA030023F07F47ACEB070303F502
:101440007C5300F0004003F1FF032DE980494FEA8F
:10145000154B09B44FEA144325EA0B4E24EA03481E
:101460000FF2042606EB132749083E785FEA3202A2
:1014700003FB0667C7F5000707FB06F64FEA54377C
:101480004FEAD64606F1020607FB066CCCF1005C7B
:101490004FEA1C472CEA074C07FB06F40CFB06F549
:1014A00004EB15464FEA961634BF00204FF000407B
:1014B0004FEAD13706FB07FC4FEA1C4C0CFB0BF73D
:1014C000D21B03FB0CF761EB07010CFB0EF7B0EB33
:1014D000074072EB17420CFB08F734BFA2EB074240
:1014E000B2EB074261EB17414FEA0C444FEA910718
:1014F00006FB07FC4FEA1C4C0CFB0BF7B0EBC7409C
:1015000072EB573203FB0CF734BFA2EBC742B2EBCE
:10151000C74261EB57310CFB0EF7B0EBC70072EB23
:1015200057720CFB08F734BFA2EBC702B2EBC7023D
:1015300061EB5771039F4FEA816141EA921104EB1D
:10154000CC044FEAD1374FEA826206FB07FC42EA3D
:1015500090124FEA80604FEA1C4C0CFB0BF7D21B39
:1015600003FB0CF761EB07010CFB0EF7B0EB074038
:1015700072EB17420CFB08F734BFA2EB0742B2EB49
:10158000074261EB17414FEA8C554FEA910704EB94
:101590009C2406FB07FC4FEA1C4C0CFB0BF7B0EB42
:1015A000C74072EB573203FB0CF734BFA2EBC742C4
:1015B000B2EBC74261EB57310CFB0EF7B0EBC70043
:1015C00072EB57720CFB08F734BFA2EBC702B2EB09
:1015D000C70261EB577115EB4C254FEA816141EA77
:1015E00092114FEA82624FEAD13742EA901206FB2B
:1015F00007FC44F100044FEA80604FEA1C4C0CFBEE
:101600000BF7D21B03FB0CF761EB07010CFB0EF78A
:10161000B0EB074072EB17420CFB08F734BFA2EBAC
:101620000742B2EB074261EB174115EB1C154FEA7D
:10163000813141EA92414FEA823242EA90424FEAD6
:1016400080304FEA0C7644F1000448EA03434EEA46
:101650000B484FF0000EB2EB080C71EB030724BFF0
:10166000624639464EEB0E0E4FF0000B0018524109
:1016700049414BEB0B0BB2EB080C71EB03077BF111
:10168000000B24BF624639464EEB0E0E4FF0000BA6
:101690000018524149414BEB0B0BB2EB080C71EBBC
:1016A00003077BF1000B24BF624639464EEB0E0E5A
:1016B00051EA020718BF46F0010616EB0E7655F107
:1016C000000254F1000103D5BDE88901BDE800889E
:1016D000BDE88901BDE80048B619524141EB01015E
:1016E000A3F10103704780807F7E7D7C7B7A7978CF
:1016F000777676757473727171706F6E6E6D6C6CD7
:101700006B6A6A6968686766666564646363626178
:101710006160605F5F5E5E5D5D5C5C5B5B5A5A59F9
:101720005958585757565655555554545353525265
:101730005251515050504F4F4F4E4E4D4D4D4C4CBD
:101740004C4B4B4B4A4A4A49494948484847474706
:101750004746464645454544444444434343434243
:10176000424242414141002B9C4630D477002BD06D
:101770001CB54FEA370703B44FF010004FF01001CB
:10178000BAF1000F06D0BCF1000FDCBF40F008003A
:1017900040F008014FF000000FBCBDE810400BF115
:1017A000010BBBF1010F08BF5FEA170722BF12F15F
:1017B000010211F101014FF0004143F1000300F07B
:1017C000004043EA00007047F9D35708D0E746EAE3
:1017D000064613F1400F4FEA16461FDD13F1200FA6
:1017E000DFBF16430A46002120335B42BED0C3F15F
:1017F000200746EA064602FA07F74FEA164646EA87
:101800000706C3F1200722FA03F201FA07F721FACB
:1018100003F14FF0000342EA0702A7E746EA020697
:1018200046EA06464FEA164646EA0106BCBF46EAC5
:101830000646360C4FF000034FF000024FF0000157
:1018400094E72DE9804C9A46934670B491E83800AD
:1018500007C831EA400C48BF34EA430C03D5FFF710
:10186000E6FDFFF780FFF0BCBDE8008C2DE9804C61
:101870009A46934670B491E8380007C810F0804F3C
:1018800008BF13F0804F03D100F005F8FFF76BFF9E
:10189000F0BCBDE8008C20F07F4780EA030023F015
:1018A0007F4C07EB0C03A3F57C5300F00040A3F141
:1018B000FE0392F0000F00F0B38095F0000F00F0EF
:1018C00077802DE901494FEA11404FEA144621EA99
:1018D000004800FB06FC24EA064708FB06F607FB67
:1018E00008F800FB07F718EB06484CEB164C4FEADC
:1018F000124B18EB07484FEA15464CEB174022EA0B
:101900000B4E0BFB06FC25EA06470EFB06F607FB13
:101910000EFE0BFB07F71EEB064E4CEB164C4FF082
:1019200000061EEB074E4CEB174B18EB0B0840F173
:10193000000018EB0E0B58EB000840F100008F1A66
:101940004FF000013CBFC943661B14BFB5EB040C4C
:1019500000213CBFC943F61B4FEA17444EEA8E0EE6
:1019600027EA04454FEA1C4704FB07622CEA074CB0
:1019700005FB07F70CFB05F604FB0CFC16EB074612
:1019800042EB174216EB0C4642EB1C421BEB0606E1
:1019900058EB0202414146EA9E0601D5BDE80189A5
:1019A000B619524141EB0101A3F10103BDE80189E0
:1019B0004FEA14454FEA114724EA054621EA074C4D
:1019C00005FB07F406FB07F70CFB06F105FB0CFC17
:1019D00011EB074144EB17444FEA124711EB0C415E
:1019E00044EB1C4422EA074C05FB07F206FB07F711
:1019F0000CFB06F605FB0CFC16EB074642EB174208
:101A000016EB0C4642EB1C456A1854F1000148BF26
:101A10007047B619524141EB0101A3F10103704730
:101A200095F0000F37D04FEA11424FEA144721EAF0
:101A3000024624EA074C02FB07F106FB07F70CFB02
:101A400006F402FB0CFC14EB074441EB17414FEA90
:101A5000154714EB0C4441EB1C4125EA074C02FBF3
:101A600007F506FB07F70CFB06F602FB0CFC16EB72
:101A7000074645EB174516EB0C4645EB1C42121981
:101A800051F1000148BF7047B619524141EB0101C5
:101A9000A3F1010370474FEA14454FEA114724EAC6
:101AA000054621EA074C05FB07F106FB07F70CFB8F
:101AB00006F24FF0000605FB0CFC12EB074241EB6F
:101AC000174112EB0C4251EB1C4148BF7047921872
:101AD00041EB0101A3F10103704700BFFEE770472E
:101AE00000B5034603E04FF47A7000F005F8181EC5
:101AF000A3F10103F7D100BD00EBC001C9004FF015
:101B0000E0225161002191610521116100BF4FF078
:101B1000E021096901F480310029F8D004214FF057
:101B2000E022116170472DE9F041024600250026B0
:101B3000002000230024002791F803C00CF00F05BB
:101B400091F803C00CF0100CBCF1000F03D091F819
:101B500002C04CEA050591F800C0BCF1000F31D07D
:101B6000146800202BE04FF0010C0CFA00F3B1F8E0
:101B700000C00CEA03069E4220D183004FF00F0CF8
:101B80000CFA03F7BC4305FA03FC4CEA040491F891
:101B900003C0BCF1280F06D14FF0010C0CFA00FC79
:101BA000C2F814C00AE091F803C0BCF1480F05D197
:101BB0004FF0010C0CFA00FCC2F810C0401C0828C1
:101BC000D1D31460B1F800C0BCF1FF0F34DD54680C
:101BD00000202EE000F1080C4FF0010808FA0CF389
:101BE000B1F800C00CEA03069E4221D183004FF0F9
:101BF0000F0C0CFA03F7BC4305FA03FC4CEA04048F
:101C000091F803C0BCF1280F05D100F1080C08FAC7
:101C10000CF8C2F8148091F803C0BCF1480F07D14A
:101C200000F1080C4FF0010808FA0CF8C2F8108017
:101C3000401C0828CED35460BDE8F0810AB1016190
:101C400000E04161704700BFFEE700BFFEE770475C
:101C500000200CE0002106E00022064B03EBC0133D
:101C60005A544A1CD1B28029F6DB421CD0B2082853
:101C7000F0DB7047000000202DE9F04304460D46DC
:101C800016461F46284638E0224631E0002A2DDB62
:101C90007F2A2BDC002829DB3F2827DC4FEAE07C69
:101CA00000EB5C7C4FEAEC0CDFF8588008EBCC1CB6
:101CB0001CF802C003464FEAE07800EB58784FEA80
:101CC000E808A0EBC8094FF0010808FA09F82CEA67
:101CD000080C01464FEAE07800EB58784FEAE80834
:101CE000DFF8209009EBC81808F802C0511C0AB2AE
:101CF000A1199142CADC411C08B2E9198142C3DC36
:101D0000BDE8F083000000202DE9F05F07460E4695
:101D100091469B46C9F1010A00254C465A46214688
:101D200028460A9B00F0E4FD28B1321911B27A1955
:101D300010B200F021FC5A46604201B2684200B283
:101D40000A9B00F0D5FD28B1321B11B27A1B10B2EC
:101D500000F012FC5A46294620460A9B00F0C8FDB6
:101D600028B1721911B23A1910B200F005FC5A46A6
:101D7000684201B2604200B20A9B00F0B9FD28B18E
:101D8000721B11B23A1B10B200F0F6FB0B98B0B107
:101D900060420FFA80F810E05A46414600200A9B44
:101DA00000F0A6FD28B106EB080001B2384600F0AD
:101DB000E3FB08F101000FFA80F8A045ECDBD3E06B
:101DC000681C05B2BAF1000F05DA6800401C5044E7
:101DD0000FFA80FA07E0601E04B2281B4000401C86
:101DE00050440FFA80FA5A46214628460A9B00F0D2
:101DF0007FFD28B1321911B27A1910B200F0BCFB84
:101E00005A46294620460A9B00F072FD28B17219F5
:101E100011B23A1910B200F0AFFB5A46604201B25B
:101E2000684200B20A9B00F063FD28B1321B11B278
:101E30007A1B10B200F0A0FB5A46684201B2604221
:101E400000B20A9B00F054FD28B1721B11B23A1B7C
:101E500010B200F091FB5A46604201B228460A9B3C
:101E600000F046FD28B1321B11B27A1910B200F011
:101E700083FB5A46684201B220460A9B00F038FDB7
:101E800028B1721B11B23A1910B200F075FB5A4614
:101E90002146684200B20A9B00F02AFD28B132199F
:101EA00011B27A1B10B200F067FB5A462946604215
:101EB00000B20A9B00F01CFD28B1721911B23A1B46
:101EC00010B200F059FB0B9800284DD060420FFA79
:101ED00080F820E05A46414628460A9B00F008FD5B
:101EE00030B106EB080211B27A1910B200F044FBCF
:101EF0005A464146684200B20A9B00F0F9FC30B1F4
:101F000006EB080211B27A1B10B200F035FB08F1A3
:101F100001000FFA80F8A045DCDB68420FFA80F878
:101F200020E05A464146604200B20A9B00F0E0FCC5
:101F300030B106EB080211B23A1B10B200F01CFBE4
:101F40005A46414620460A9B00F0D2FC30B106EBCF
:101F5000080211B23A1910B200F00EFB08F10100AC
:101F60000FFA80F8A845DCDBA542FFF629AFBDE8F3
:101F7000F09F2DE9F04F07460E4691469A46C9F16B
:101F8000010B00254C46321911B27A1910B200F03B
:101F9000F3FA321B11B27A1B10B200F0EDFA72198B
:101FA00011B23A1910B200F0E7FA721B11B23A1BE3
:101FB00010B200F0E1FABAF1000F0FD060420FFA50
:101FC00080F809E006EB080001B2384600F0D4FAC8
:101FD00008F101000FFA80F8A045F3DB75E0681CFA
:101FE00005B2BBF1000F05DA6800401C58440FFA37
:101FF00080FB07E0601E04B2281B4000401C5844D0
:102000000FFA80FB321911B27A1910B200F0B4FA4B
:10201000721911B23A1910B200F0AEFA321B11B2B5
:102020007A1B10B200F0A8FA721B11B23A1B10B260
:1020300000F0A2FA321B11B27A1910B200F09CFA29
:10204000721B11B23A1910B200F096FA321911B29D
:102050007A1B10B200F090FA721911B23A1B10B24A
:1020600000F08AFABAF1000F2FD060420FFA80F820
:1020700011E006EB080211B27A1910B200F07CFAF6
:1020800006EB080211B27A1B10B200F075FA08F1E3
:1020900001000FFA80F8A045EBDB68420FFA80F8E8
:1020A00011E006EB080211B23A1B10B200F064FA1C
:1020B00006EB080211B23A1910B200F05DFA08F10D
:1020C00001000FFA80F8A845EBDBA54287DBBDE8ED
:1020D000F08F00002DE9FF4F97B007460E469B4654
:1020E000DDF864A0D94600254C46C9F1000001F096
:1020F000DEFE0022C14BCDE9080101F067FCCDE90D
:102100000C010AFB0AF001F0D2FECDE90A01DDE97B
:102110000C2301F033FFCDE9100109FB09F001F0B8
:10212000C6FECDE90E01DDE9102301F04FFCCDE93B
:10213000120101F019FC15902498A8B160420FFA21
:1021400080F80FE006EB080001B2384600F014FA00
:1021500006EB080001B2384600F00EFA08F1010063
:102160000FFA80F8A045EDDB321911B27A1910B2DE
:1021700000F002FA321B11B27A1B10B200F0FCF927
:10218000321911B27A1B10B200F0F6F9321B11B2FB
:102190007A1910B200F0F0F95BE00021159802F016
:1021A000F7F90DD809FB09F16A00D21C01FB02F016
:1021B00002F0D6F91390159902F064F9159014E025
:1021C00009FB09F16A00D21C51430AFB0AF26300C1
:1021D000C3F1020302FB031002F0C2F91390159938
:1021E00002F050F91590601E04B2681C05B22498E4
:1021F000B8B160420FFA80F811E006EB080211B2A4
:102200007A1910B200F0B8F906EB080211B27A1B85
:1022100010B200F0B1F908F101000FFA80F8A04502
:10222000EBDB321911B27A1910B200F0A5F9321BAA
:1022300011B27A1B10B200F09FF9321911B27A1B59
:1022400010B200F099F9321B11B27A1910B200F0F5
:1022500093F9204601F02BFE0022684BCDE90A01DC
:1022600002F026F8CDE90E010AFB0AF001F01FFE8C
:10227000CDE90C01DDE90E2301F080FECDE912016C
:1022800009FB09F16A1C01FB02F001F010FECDE927
:102290001001DDE9122301F035FEFFF47EAF0AFBE9
:1022A0000AF101FB09F101FB09F001F000FECDE9A3
:1022B00010010AFB0AF1621E514301FB02F001F01A
:1022C000F6FDCDE90C01284601F0F1FD00224B4B53
:1022D000CDE9040101F07AFBCDE90801284601F0BF
:1022E000E6FD0022454BCDE9000101F06FFBCDE991
:1022F000040109FB09F001F0DAFDCDE90201DDE995
:10230000042301F03BFECDE90601DDE9082301F0DD
:1023100035FECDE90A01DDE90C2301F057FBCDE9DB
:102320000E01DDE9102301F0C3FFCDE9120101F038
:102330001BFB14905CE00021149802F029F915D8D9
:1023400009FB09F16A00921C51430AFB0AF263007F
:10235000C3F1030302FB031002F002F91390149976
:1023600002F090F81490681C05B20DE00AFB0AF127
:102370006200C2F1030201FB02F002F0F1F81390D7
:10238000149902F07FF81490601E04B22498B8B13A
:1023900060420FFA80F811E006EB080211B27A19D8
:1023A00010B200F0E9F806EB080211B27A1B10B285
:1023B00000F0E2F808F101000FFA80F8A045EBDB2D
:1023C000321911B27A1910B200F0D6F8321B11B2DC
:1023D0007A1B10B200F0D0F8321911B27A1B10B289
:1023E00000F0CAF8321B11B27A1910B200F0C4F82A
:1023F000002CA0DC1BB0BDE8F08F00000000E03F27
:102400002DE9FF4F86B0069E079CDDF82080DDF8A1
:1024100024900020019000904C450FD1464502DDEC
:10242000B2464646D046354605E02146284600F0ED
:10243000A3F8681C05B24545F7DD99E046450FD184
:102440004C4502DDA2464C46D146274605E03946BA
:10245000304600F091F8781C07B24F45F7DD87E071
:10246000464505DDB2464646D046A2464C46D146D4
:102470004C4507DD604204B2C9F100000FFA80F953
:1024800001200190A9EB0400A8EB0601884207DDBA
:10249000B24626465446C246C846D1460120009060
:1024A000A8EB060000B20590A9EB04000FFA80FB30
:1024B0004FEA4B0000B203900598ABEB00004000E0
:1024C00000B202900598C0EB4B0000B20490354674
:1024D0002746019838B1009828B1684201B23846C1
:1024E00000F04AF812E0019828B1784201B228467B
:1024F00000F042F80AE0009820B12946384600F082
:102500003BF803E03946284600F036F82EE0681C18
:1025100005B20498002805DADDE90310084400B28A
:10252000049006E0781C07B202990498084400B2AF
:102530000490019838B1009828B1684201B2384639
:1025400000F01AF812E0019828B1784201B228464A
:1025500000F012F80AE0009820B12946384600F051
:102560000BF803E03946284600F006F84545CEDB77
:102570000AB0BDE8F08F000070B50346002B20DBE9
:102580007F2B1EDC00291CDB3F291ADCCC1701EB5A
:102590005474E4100B4D05EBC414E45C0A46CD17EB
:1025A00001EB5575ED10A1EBC5060125B5402C4397
:1025B0000846CD1701EB5575ED10024E06EBC5151B
:1025C000EC5470BD000000202DE9F04705460E4692
:1025D00017469846DDF820A0BAF1000F24D12C460A
:1025E0000CE031462046FFF7C7FF06EB0800401E0F
:1025F00001B22046FFF7C0FF601C04B2E819A042F8
:10260000EFDC34460BE021462846FFF7B5FFE91919
:10261000491E08B22146FFF7AFFF601C04B206EB6B
:102620000800A042EFDC14E02C460FE0B14607E0C2
:1026300049462046FFF7A0FF09F101000FFA80F993
:1026400006EB08004845F3DC601C04B2E819A04220
:10265000ECDCBDE8F0872DE9FF4F87B014461D463E
:10266000DDE91467DDF81C80DDF82090DDF81C80C2
:10267000CDF81880DDF82090CB46DDF81C80ADF851
:102680000C80ADF80E40ADF81060DDF82090ADF88C
:102690000490ADF80650ADF80870169890B92B4626
:1026A0002246DDE90701FFF7ABFE3B463246DDE996
:1026B0000701FFF7A5FE3B46324629462046FFF7B5
:1026C0009FFE39E0444500DAA046464500DAB046B0
:1026D0004D4500DAA9464F4500DAB94606988442CE
:1026E00000DD06940698864200DD06965D4500DD15
:1026F000AB465F4500DDBB46C2461AE0CDF81490FC
:1027000010E00598534601AA03A90090032000F0A9
:102710003EFC18B150460599FFF72EFF0598401C66
:1027200000B2059005985845EBDD0AF101000FFA5B
:1027300080FA06988245E1DD0BB0BDE8F08F00001D
:1027400038B5002406E0002500E06D1CB5F57A7F61
:10275000FBD3641CB4F57A7FF5D30121082000F087
:102760005DFC14208DF8030003208DF802004FF467
:102770008070ADF8000069460848FFF7D4F94FF4BF
:102780000070ADF8000069460448FFF7CCF901205D
:1027900000F0BEFB012000F0C7FB38BD000C01407B
:1027A00070B50246002A19DB7F2A17DC002915DBE9
:1027B0003F2913DCCC1701EB5474E410084D05EBF2
:1027C000C414A45CCD1701EB5575ED10A1EBC50643
:1027D0000125B5402C400CB1012070BD0020FCE764
:1027E0000000002070B50546002411E08021214141
:1027F000294009B1012100E00021084600F094FBC6
:10280000012000F085FB002000F082FB601CC4B2B8
:10281000082CEBDB012000F07BFB002000F078FBB4
:1028200070BD10B5012000F07FFB012000F070FBAF
:10283000002000F079FB002000F06AFB10BD10B50D
:10284000002000F071FB012000F062FB012000F08D
:102850006BFB10BD10B5FFF773FFAE2000F070FBEF
:10286000D52000F06DFB802000F06AFBA82000F06E
:1028700067FB3F2000F064FBD32000F061FB0020E9
:1028800000F05EFB402000F05BFBA12000F058FB55
:10289000C82000F055FBDA2000F052FB122000F0B7
:1028A0004FFB812000F04CFBCF2000F049FBD920EA
:1028B00000F046FBF12000F043FBDB2000F040FB82
:1028C000302000F03DFBA42000F03AFBA62000F0F1
:1028D00037FB8D2000F034FB142000F031FBAF20DB
:1028E00000F02EFBFFF7B4F900F0FEFA10BD000077
:1028F0002DE9FF4F87B08B4614469946079801F0A3
:10290000D6FA05460E46584601F0D1FA07462A4641
:10291000334600F0CBFD124A124BCDE9000101F025
:1029200011F90022104BCDE9020101F027FBCDE99E
:10293000040101F05FFA0FFA80FA4C4507DAA2456C
:102940000BDBCA4509DC01200BB0BDE8F08FA245C6
:1029500001DACA4501DC0120F6E70020F4E70000B7
:102960001F85EB51B81E09400080664010B5024635
:10297000012000E050430B1EA1F10101FAD110BD6E
:102980000FB470B5C2B005460E4614464AA8019071
:1029900002A8019A4999FDF75FFC002001902346A7
:1029A00002AA3146284600F087FA42B070BC5DF8B2
:1029B00014FB0000002011E000210BE0094A02EBAB
:1029C000C012525C82F0FF02064B03EBC0135A5454
:1029D0004A1CD1B28029F1DB421CD0B20828EBDBC3
:1029E00070470000000000202DE9F04304460D462A
:1029F00016461F46284638E0224631E0002A2DDBE5
:102A00007F2A2BDC002829DB3F2827DC4FEAE07CEB
:102A100000EB5C7C4FEAEC0CDFF8588008EBCC1C38
:102A20001CF802C003464FEAE07800EB58784FEA02
:102A3000E808A0EBC8094FF0010808FA09F88CEA89
:102A4000080C01464FEAE07800EB58784FEAE808B6
:102A5000DFF8209009EBC81808F802C0511C0AB230
:102A6000A1199142CADC411C08B2E9198142C3DCB8
:102A7000BDE8F0830000002070B505460C4645F027
:102A8000B00000F05DFA102141EA141000F058FA8D
:102A900004F00F0000F054FA70BD2DE9F04706462F
:102AA000894617461D46DDF82080002414E0281BC7
:102AB000411E0220FFF75AFFB7FBF0F000F00100C3
:102AC00000F1300A04FB086108B243465246494609
:102AD00000F006F8601CC4B2AC42E8DBBDE8F08749
:102AE000F8B506460F4614461D46082D0CD1A4F134
:102AF00020000E4901EB00101023082239460090F7
:102B0000304600F0FDF80FE0062D0DD1A4F12000B5
:102B100000EB4000064901EB40000823062239463D
:102B20000090304600F0ECF8F8BD00007248000854
:102B3000624E00082DE9FC4780468946164600276C
:102B400000200190002538E0705D01A9C855781C6F
:102B5000C7B2032F2FDB002700240BE004EBC401D6
:102B6000184A02EB810001A9FDF788FB00B90BE0D0
:102B7000601CC4B204EBC401124A02EB810012A132
:102B8000FDF77CFB0028E9D100BF681C032190FB06
:102B9000F1F0401E08EB00100FFA80FA04EBC400BD
:102BA000084901EB8000001D10231A464946009099
:102BB000504600F0A5F8681CC5B2705D0028C3D16E
:102BC000BDE8FC879C500008000000002DE9FF5F75
:102BD00086B0074614461D46DDF85080169E00223A
:102BE00013462046294601F0C7FA06D833462B2261
:102BF00038460799FFF774FF07E033462D22384621
:102C00000799FFF76DFF85F000452046294601F042
:102C100021F98246504601F061F922462B46CDE962
:102C2000040101F039FB04460D460A201599FFF70F
:102C30009DFE8146484601F051F922462B46CDE9DA
:102C4000000101F09BF9CDE9020100F017FECDE98A
:102C5000040101F0FFF88346BBFBF9F08244B91987
:102C600008B2434652460096079900F0C7F808F1AB
:102C7000010101FB067108B233462E220799FFF7C6
:102C80002FFF08F1020101FB067108B200965A46B7
:102C9000159B079900F0B2F80AB0BDE8F09F2DE946
:102CA000F04706468A4691461F46DDF820800024FC
:102CB00021E0381B411E1020FFF758FEB9FBF0F051
:102CC00000F00F050A2D0ADA05F13001CAB204FB43
:102CD000086108B243465146FFF702FF09E005F1DB
:102CE0003701CAB204FB086108B243465146FFF7F8
:102CF000F7FE601CC4B2BC42DBDBBDE8F08700001D
:102D00002DE9FF4F80460E469146DDF834B0002590
:102D100000244A4631464046039BFEF7ADFF00BF04
:102D20005EE0002558E008EB0500002852DB08EBC8
:102D300005007F284EDC3046F11706EB5171C910B3
:102D40000FB2F11706EB5171C910A6EBC10A002EA4
:102D500005DA781E07B20AF108000FFA80FA38196E
:102D6000002817DB3819072814DC3819224901EB31
:102D7000C01008EB0501405C04FB09511BF8011071
:102D800001FA0AF1084339191B4A02EBC11108EB99
:102D9000050288543819401C00281BDB3819401CD8
:102DA000072817DC3819401C134901EBC01008EB49
:102DB0000501405C04FB09511BF80110CAF108022F
:102DC000114108433919491C0B4A02EBC11108EBA8
:102DD00005028854681CC5B24D45A4DB601CC4B212
:102DE0000399481EC11700EB5171012202EBE1016A
:102DF000A14296DCBDE8FF8F000000202DE9F047DE
:102E00000646894617461D46DDF82080002417E057
:102E1000281B411E0A20FFF7A9FDB7FBF0F00A218D
:102E2000B0FBF1F201FB120000F1300A04FB086173
:102E300008B2434652464946FFF752FE601CC4B2F0
:102E4000AC42E5DBBDE8F0872DE9F04F80468A46CD
:102E500015461E46DDF82490002D07DB4B462B223D
:102E600051464046FFF73CFE2F4606E04B462D22DA
:102E700051464046FFF734FE6F42002418E0301BF5
:102E8000411E0A20FFF772FDB7FBF0F00A21B0FBEC
:102E9000F1F201FB120000F1300B611C01FB098112
:102EA00008B24B465A465146FFF71AFE601CC4B2A0
:102EB000B442E4DBBDE8F08F2DE9F04106468846D8
:102EC00015461F46002409E02A5D04FB076108B28D
:102ED0003B464146FFF704FE601CC4B2285D002853
:102EE000F2D1BDE8F081000010B500240BE0002114
:102EF0002046FFF7C1FD054901EBC410802100F019
:102F00002FF8601CC4B2082CF1DB10BD00000020BB
:102F100010B5044622464FF480710248FEF78EFE3B
:102F200010BD0000000C014010B5044622464FF4CD
:102F300000710248FEF782FE10BD0000000C014047
:102F400010B50446FFF76DFC7820FFF74BFC00201E
:102F5000FFF748FC2046FFF745FCFFF770FC10BD6B
:102F600070B505460E46FFF75CFC7820FFF73AFC8B
:102F70004020FFF737FC002404E0285DFFF732FC17
:102F8000601CC4B2B442F8DBFFF759FC70BD2DE9F8
:102F9000F04305460C461F46079E4FF0000C0021EB
:102FA0006B1E34E032F91100B04201DD012000E077
:102FB000002032F91380B04502DD4FF0010801E036
:102FC0004FF0000840451FD034F9130034F9118048
:102FD000A0EB080032F91180A6EB080800FB08F00E
:102FE00032F9138032F91190A8EB090890FBF8F040
:102FF00034F911804044B84206DDBCF1000F01D124
:10300000012000E0002084460B46481C01B2A94282
:10301000C8DB0CF0FF00BDE8F083704729B1064A19
:1030200092690243044B9A6104E0034A9269824325
:10303000014B9A617047000000100240704710B5C4
:1030400000F002F810BD00000CB5002001900090C7
:103050003348006840F480303149086000BF304890
:10306000006800F4003000900198401C0190009826
:1030700018B90198B0F5A06FF1D12948006800F4A3
:10308000003010B10120009001E000200090009875
:10309000012843D12348006840F01000214908600E
:1030A0000846006820F0030008600846006840F009
:1030B000020008601A48406819494860084640689C
:1030C00048600846406840F48060486008464068B0
:1030D00020F47C1048600846406840F4E8104860DE
:1030E0000846006840F08070086000BF0C48006827
:1030F00000F000700028F9D00948406820F0030073
:10310000074948600846406840F00200486000BF38
:103110000348406800F00C000828F9D10CBD0000FD
:1031200000100240002002407047000010B5134814
:10313000006840F0010011490860084640681049E5
:1031400008400E494860084600680E4908400B498F
:1031500008600846006820F480200860084640683F
:1031600020F4FE0048604FF41F008860FFF767FFFF
:103170004FF000600449086010BD000000100240DC
:103180000000FFF8FFFFF6FE08ED00E000BFFEE7DD
:10319000490050EAC12018BF04204A0D18BF40F072
:1031A000010040F2FF72B2EB515F08BF40F0020035
:1031B000012808BF052070472DE9F0414F1E00EBA4
:1031C000C7010446D1E9000115461E4637F0060244
:1031D0000DD02A46334600F0D1FE7F1E04EBC70314
:1031E000D3E9002300F0F2FB37F00602F1D1022F01
:1031F00025D0042F13D0062F18BFBDE8F0812A4632
:10320000334600F0BBFED4E90A2300F0DFFB2A4678
:10321000334600F0B3FED4E9082300F0D7FB2A467A
:10322000334600F0ABFED4E9062300F0CFFB2A467C
:10323000334600F0A3FED4E9042300F0C7FB2A467E
:10324000334600F09BFED4E9022300F0BFFB2A4680
:10325000334600F093FED4E90023BDE8F04100F0CE
:10326000B5BB012201F0BFBA00F0B0BB024A00209A
:10327000110701F0B8BA000001FDFFFF30380A283D
:1032800001D2012070470020704700002DE9F84F5F
:1032900004460D4621F0004000917349814211DC43
:1032A0007249884201DC06D12CB120462946BDE88E
:1032B000F84FFFF7D6BF6E48002DCCBF6D496E4961
:1032C000BDE8F88F6D49814211DD6D498142D8BF5B
:1032D0004FF0FF366DDD20462946FFF759FF0428E1
:1032E00008BFFFF7C3FF20462946BDE8F88F6549B0
:1032F000654F25F00045814233DD6449814219DD87
:10330000002632464FF080432046294600F05EFBFF
:1033100080468A4601222046294601F064FA0022AE
:103320003B4600F0C5FF4246534600F00BFC044606
:103330000D463EE001260022BA463B46204629467D
:1033400000F044FB80460F460022534620462946A3
:1033500000F0AEFF42463B4600F0F4FB04460D464B
:1033600027E04B4981421BDDDFF828A1022600221D
:1033700053462046294600F001FE00223B4600F05D
:1033800025FB80460F46002253462046294600F082
:103390008FFF42463B4600F0D5FB04460D4608E051
:1033A000032622462B4600203B4900F0CBFB044677
:1033B0000D4622462B461046194600F0DFFD8B468F
:1033C000824602460B4600F0D9FD074602463348C6
:1033D00088460B4606217844FFF7EEFE52465B46D0
:1033E00000F0CCFD82462E488B463A4643460521E6
:1033F0007844FFF7E1FE3A46434600F0BFFD02463F
:103400000B46002E504659460CDA00F0DFFA2246F1
:103410002B4600F0B3FD01B022462B46BDE8F04F2D
:1034200000F03ABF00F0D2FA22462B4600F0A6FD8B
:103430001C4A7A4402EBC603D3E9002300F038FFAC
:1034400022462B4600F034FF174A7A4402EBC603AB
:10345000D3E9002300F020FF009A002AB8BF81F0D2
:103460000041BDE8F88F0000000010440000F07F2C
:10347000182D4454FB21F93FFB21F9BF0000DC3F2C
:103480000000203E0000F33F0000F03F0000E63F58
:10349000008003400000F83F0000F0BF8E1E0000D7
:1034A0004C1E0000EA1D0000B21D00002DE9F04D89
:1034B0009446CCF1000423F000464CEA0404524F39
:1034C00046EAD4749A46884621F00042BC4206D8A7
:1034D000454240EA050442EAD474BC4204D9BDE83E
:1034E000F04D6246FFF7C0BEAAF14055A5F17F65D9
:1034F00055EA0C040BD0022404EAAA74434DDFF809
:1035000010E144EAD87452EA000B04D00CE0BDE8A4
:10351000F04DFFF7BBBE002C14BF012CBDE8F08DB1
:10352000022C30D0032C32D056EA0C0B0AD0BE420B
:1035300020D1BA4209D126F0804622F0804233469B
:10354000114617E000291ADB25E0DFF8C8B0FB447C
:10355000002C04BFDBE90001BDE8F08D012C02BFA7
:10356000DBE9000181F00041BDE8F08D022C0AD0BA
:10357000032C0CD0BA4212D1B8F1000F0BDA234859
:103580002549BDE8F08D28462449BDE8F08D284640
:103590007146BDE8F08D1D482149BDE8F08D921BB4
:1035A00012153C2AC4BF19481D490EDCBAF1000FA0
:1035B000BEBF12F13C0F0020014606DB624600F060
:1035C000C1FA21F00041FFF761FE002C08BFBDE801
:1035D000F08D012C04BF81F00041BDE8F08D114A4F
:1035E000114B022C07D000F063FE2A46BDE8F04DD7
:1035F0000A4B00F05DBE00F05BFE2A46BDE8F04DD0
:10360000064B00F049BE00000000F07F182D445426
:10361000FB2109C0461D0000FB21F9BFFB21094029
:10362000FB21F93F075C143326A6A13C0EB5FFF73A
:1036300011F90823412200210846FFF751FA082317
:103640007EA200211020FFF737FC06234122122121
:103650000020FFF745FA062378A212211020FFF779
:103660002BFC0620052343F239021C210090002088
:10367000FFF7C4FB062002236FF041021C210090DB
:103680002820FFF7E1FB062004234AF2A5521C2163
:1036900000904620FFF703FB06200823A5222621E1
:1036A00000900020FFF7F9F9062002210322CDE95E
:1036B00000210290654A664B26213C20FFF786FADE
:1036C00064A230210020FFF735FA674810231A461C
:1036D000302100906020FFF713FB062063A3024611
:1036E000122100906020FFF74BF9FFF7FDFB40F639
:1036F000B830FEF7F5F9FEF7ABFA08210520FEF722
:103700003BFF08210520FFF74BF830B1062359A2F3
:1037100004210A20FFF7D0FB05E0062356A204216E
:103720000A20FFF7C9FB0F237F2200212820FEF784
:1037300067FE00237F220F212820FEF761FE002074
:103740000F230C2214210090FEF73EFF01200F23CF
:103750000C22282100900020FEF736FF00202321B4
:103760001E221923CDE900210290282214210846A7
:10377000FEF771FF012037211E222D23CDE9002104
:103780000290282211461420FEF765FF002308222C
:103790001B213720FEF7EDFB012308222F213720C4
:1037A000FEF7E7FB002008230C221B21009052208B
:1037B000FEF790FC012008230C222F2100905220BC
:1037C000FEF788FC00207D2119230F22CDE900108F
:1037D00012216E20FEF798FA01207D2119230F2275
:1037E000CDE9001026216E20FEF78EFAFFF77CFB54
:1037F00040F6B830FEF774F91FE0002413E0210111
:10380000102380220020FFF7EFF8FFF76DFB4FF445
:103810007A70FEF765F92101102380220020FFF75E
:10382000E3F8601CC4B2042CE9DBFFF7C3F8FFF730
:103830005BFB4FF47A70FEF753F9DEE748656C6C7A
:103840006F20576F726C642100000000CDCCCCCC8F
:10385000CCDC5E40E4BDA0E5A5BDEFBC8CE4B89631
:10386000E7958CE380820000985100085B25303298
:10387000645D0000594553004E4F20002DE9F04D86
:1038800007460E4600F0AEFC04460D463A46334667
:1038900000F002FDDFF86CA0DFF86CB01B4B0746B0
:1038A000884616F0004F4FF000020AD000F02AFBC5
:1038B0000AD900225B463846414600F05DFC1BD227
:1038C00012E000F01FFB08D2002253462046294692
:1038D00000F0EEFC04460D460EE000225B46384642
:1038E000414600F049FC07D80022534620462946AD
:1038F00000F06CF804460D463146204665F31E0183
:10390000BDE8F08D0000F03F0000E03F0000E0BFA8
:1039100010B500290AD00878002807D00548784457
:10392000FCF7ACFC002801D0002010BD0248784410
:1039300010BD00004E1A0000461A000010B5002904
:103940000AD00878002807D005487844FCF796FC90
:10395000002801D0002010BD0248784410BD0000AE
:103960003E1A0000361A000021F00042A2F1605217
:10397000B2F5801F01F0004328BFD2F17F6C0BD954
:103980005FEA001C43EAC20242EB507018BF704766
:1039900028BF20F001007047B2F5801FBCBF184659
:1039A00070474FEA410C1CF5001F02D2084600F098
:1039B00069BE70B500F08CFB00000089FFF7F6BF10
:1039C0004FF00040A0F580007047000010B591EA6C
:1039D000030F48BF83F0004300F17284841A71EB37
:1039E000030C05D2121943EB0C03001B61EB0C0115
:1039F000DFF824E14FEA1154A4EB135C1EEA430FF5
:103A000018BF9EEA445F73D023EA0E03DCF1200E58
:103A100021EA045143F4801332D322FA0CFE10EB56
:103A20000E0023FA0CFE41EB0E01CCF1200E03FA3E
:103A30000EFE10EB0E0051F10001B1F5801FCCF12C
:103A4000200E32D201EB045112FA0EF2BDE8104002
:103A500058BF7047401C38BF5FEA420218BF70472A
:103A6000002814BF20F0010041F100014FEA41039A
:103A700013F5001F38BF7047A1F1C04100F076BBBD
:103A8000012A43EB0302ACF1200CDCF11F0E32BF24
:103A90004FF0000E23FA0CF310EB030041EB04513E
:103AA000B4EB115FD0D0A1EB045101F580114908AE
:103AB0005FEA300001EB04510ED350F1000038BF33
:103AC00012FA0EFE08D1BDE81040C9E7401C38BF0D
:103AD0005FEA4202CAD1C3E7BDE810404FEA4103A2
:103AE00013F5001F38BF7047A1F1C04100F03EBB85
:103AF0009EEA445F08D011EA5E0FBDE8104004BFA3
:103B000001F0004100207047BDE8104070B500F0A2
:103B1000DFFA00BF64FBBE3E0000E0FF02494FF049
:103B2000000000F02EBE00BF0000F87F491058BF13
:103B3000C1F140415B1058BFC3F140438B42EFF3EA
:103B4000008070472DE9C04130B4DFF8A0C23CEAE4
:103B5000111418BF3CEA131400F0EC8081EA03054D
:103B60001CEA111444EAD57418BF1CEA131500F0BE
:103B7000C780A4EB05044FF0004545EAC12145EAA2
:103B8000C32341EA505143EA525304F17F749942EE
:103B900004F500344FEAC0204FEAC22208BF904229
:103BA00000F09C804FEA13650FF24016765D4FEAF5
:103BB000134506FB05F7C7F1807706FB07F74FEAC9
:103BC000D737A7FB03687642C8F58038A7FB06CE37
:103BD00038BFA8F1010807FB08E64FF0000EA6FB6E
:103BE000028CE6FB03CEDCF1000CCEF1004E38BFB8
:103BF000AEF1010EA6FB0C584FF000074FF0000588
:103C0000E6FB0E87A1FB08C6A0FB07CE16EB0E064F
:103C100045F10005E1FB076515F1E04E7EBFA4F517
:103C200080345FEA46066D4116F1800745F10005D4
:103C30004FEA17274FEA066647EA0567A6F1DE4610
:103C4000B6F1805F4FEA15251FD9384624F0010CE4
:103C500005EBC471BCF1FE6F01EB0C1102D8F0BC96
:103C6000BDE8008124425CBF01F5801E9EEAC47F4E
:103C700002D4F0BCBDE80081244238D4F0BCA1F1EC
:103C8000C041BDE8004100F071BA4FEAD22242EAD9
:103C900043524FEAD323A7FB02864FEAD02040EAE3
:103CA000415007FB03661EEA0E0F4FEAD12105FBC8
:103CB000026658BFA6EB0056B6EB00564FEA520E0E
:103CC0004EEAC37E18EB0E0E56EB530EBDD518EB25
:103CD00002085E417F1C55F10005B6E74FF48015E0
:103CE0004FF000074FF000064FF00008ADE7F0BCC2
:103CF0004FF0000001F1C04101F00041BDE800813A
:103D000011EA0C1F0CEA131500D00CE013EA0C1F8B
:103D100000F025804FF00000F0BC81EA030101F0C3
:103D20000041BDE80081F0BCBDE8004181EA03012B
:103D300000F01CBAF0BCBDE8004170B500F0C8F955
:103D4000097EFC3E00F007B881EA03014FF0000055
:103D500001F00041704781EA030100F007BAF0BCAE
:103D6000BDE800414FF0000021497047FFFDFBF91D
:103D7000F7F5F4F2F0EEEDEBE9E8E6E4E3E1E0DE9E
:103D8000DDDBDAD8D7D5D4D3D1D0CFCDCCCBCAC810
:103D9000C7C6C5C4C2C1C0BFBEBDBCBBBAB9B8B737
:103DA000B6B5B4B3B2B1B0AFAEADACABAAA9A8A82A
:103DB000A7A6A5A4A3A3A2A1A09F9F9E9D9C9C9BF8
:103DC0009A999998979796959594939392919190A3
:103DD0008F8F8E8E8D8C8C8B8B8A89898888878734
:103DE0008685858484838382828181800000FF07A9
:103DF0000000F87F4FEA41034FEA5353A3F5806375
:103E0000D3F11E03C8BFD3F1210C0CDD4FF00042EB
:103E100042EAC12242EA505232FA03FC8CEAE17CC7
:103E2000ACEBE1707047102BC4BF0020704703F566
:103E3000787CBCF1FF3F04D06FF0004282EA2100A1
:103E4000704770B500F044F9499224800020704713
:103E5000F2E700004FEA1153A3F58063D3F11E038C
:103E6000A8BFD3F1200C08DB4FF0004242EAC12288
:103E700052EA505232FA03F0704709420BD4102B29
:103E8000C4BF0020704703F5787CBCF1FF3F05D02C
:103E90004FF0FF3070474FF00000704770B500F0F2
:103EA00017F900BF4992248000207047F0E710F016
:103EB000004248BF4042B0FA80F310FA03F10AD042
:103EC000C3F11D0303F580634FEA415002EB035237
:103ED00002EBD12170474FF000007047B0FA80F339
:103EE00010FA03F10AD0C3F11D0303F580634FEA12
:103EF00041504FEA035202EBD12170474FF00000CE
:103F00007047000051EA030C17D41CF5801F58BFFE
:103F1000BCF5801F00F10680994218BF704708BFAA
:103F20009042704707D711F5801F58BF13F5801FC7
:103F300019D499427047894270471CF5801F08D5F3
:103F4000BCF5801FF7D58B4218BF704708BF82426F
:103F500070474FF4001C1CEB410F38BF1CEB430FA4
:103F600001D28B42704770B500F0B2F8922449003C
:103F70004FF000514FF08053FFF7D8BDDFF848C134
:103F800070B51CEA111E1EBF1CEA13159EEA0C0F29
:103F900095EA0C0F00F06F8081EA030423EA4C13CA
:103FA0004EEAD47E21EA4C1141F4801143F480138F
:103FB000AE44A1FB024CA0FB0365AEF17F7E361937
:103FC00055EB0C05A1FB034C4CF10003A0FB021CBC
:103FD00016EB0C06654153F10003094218BF46F089
:103FE000010613F4007F0BD14FEA03314FEA05308D
:103FF000340341EA155140EA16506FF003020AE01B
:104000004FEAC3214FEAC520F40241EA555140EA84
:1040100056506FF0020202EB2E4201EB025585EA88
:10402000CE710AD05FEA440C18BF24F0004450F16E
:10403000000041F1000120EAD47040F2FE7C6245AC
:1040400000D270BDA84214BF4FF080444FF04044EE
:10405000002E08BF0024BEF1806FA8BFA1F1C041AF
:10406000BDE8704080F282804FF0000001F1C04155
:1040700001F0004170479EEA0C0F0CEA131518BFBF
:1040800095EA0C0F06D04FF0000081EA030E0EF007
:10409000004170BD00F01CF88900013E00F007B837
:1040A00000F009B84FEA430C5FEA5C5C08D081EA93
:1040B000030100F05BB84FEA410C5FEA5C5CF6D1AB
:1040C0004FF00000014970470000FF070000F87F33
:1040D0000EF1020E2EF0030E5EF8046B364205D48C
:1040E000012A43EB030515F5001F12D8012841EB07
:1040F000010C1CF5001F0CD80ED14FEAD17C15F530
:10410000001F0CEB4C0C0CF1020C08BF4CEBD37CE9
:1041100004E04FF0080C01E04FEAD37C0CEB4C05B7
:1041200026FA05F606F00706B6F1040C06D20EEBE9
:10413000860CBDE870404CF0010C6047DFE80CF0E5
:10414000090B02024FF000414FF00000A1F50021E1
:1041500070BD19461046012851EB010418BFD4F573
:10416000001484BF002001F0004170BD0808A0F5D4
:1041700000114FEA3101704753EA010C17D41CF5C6
:10418000801F58BFBCF5801F00F106808B4218BF0E
:10419000704708BF8242704707D713F5801F58BF8A
:1041A00011F5801F19D48B4270479B4270471CF554
:1041B000801F08D5BCF5801FF7D5994218BF7047FE
:1041C00008BF904270474FF4001C1CEB430F38BFF0
:1041D0001CEB410F01D2994270470FB40CBC03BCD9
:1041E000FFF7C1BE5FEA410C5FEA5C5CACF580633F
:1041F0005B1C39D4D3F1340240F34580B2F1200383
:1042000014DA4FF0010C0CFA02FCACF1010303408C
:10421000B3EB5C0220EA030008BF10EA0C0F98BF62
:10422000704710EB0C0041F1000170470AD0C3F158
:10423000200201FA02FC012821FA03F101FA03F13C
:104240004CF100004FF0010C0CFA03FCACF101033F
:10425000B0F1004F21EA030108BF11EA0C0F4FF043
:10426000000088BF61447047B3F1FF3F28BF50EAA8
:10427000C12C01F000414FF0000084BF41F07C519F
:1042800041F470017047B3F5806FB8BF704770B5E7
:10429000FFF71EFF40DBB6BE91EA030F10B581F0B9
:1042A00000413FF59BAB83F0004300F009B80000EC
:1042B00010B591EA030F48BF83F000433FF58EAB82
:1042C000841A71EB030C07D212198CF0004C43EBEB
:1042D0000C03001B61EB0C01DFF8A4E14FEA115461
:1042E000A4EB135C1EEA430F18BF9EEA445F00F084
:1042F000B08023EA6E03524221EA0451C3EB6E03FD
:1043000038BF5B1EDCF1200E25D322FA0CFE10EB29
:104310000E0043FA0CFE41EB0E01CCF1200E03FA25
:104320000EFE10EB0E0051F10001CCF1200E29D44D
:1043300012FA0EF201EB0451BDE8104058BF70476D
:10434000401C1CBFB2F1004F704700280CBF491C35
:1043500020F00100704712EB020E43EB030218BF7E
:104360004FF0010E4EEA4202ACF1200CDCF11E0EC1
:1043700054D943FA0CFE10EB0E0051F1FF31CCF191
:104380001E0ED5D50EF1010E12FA0EFE404141EB84
:10439000010101EB445C5FEA5C5C10D910EBDE705C
:1043A00001EB045138BFBEF1004FBDE8104018BF0B
:1043B000704700280CBF491C20F00100704730D224
:1043C0004FEAD42C11F5001124F400641BD0B1FA8B
:1043D00081F20B3AA41AA41ED2F12003914030FAC4
:1043E00003F31943904001EBCC71002C01EB045115
:1043F000BDE81040A8BF704701F1C0414FF0000078
:1044000001F000417047B0FA80F310FA03F100D1D7
:1044100010BDE41A173C4805C90AE4E701EB045152
:1044200010BD491001EB0451BDE810404FEA3000C7
:1044300002E04FF0000170474A0008BF0042F8D088
:10444000B2F5001F28BF704701F000414FF0000097
:1044500070479EEA445F07D011EA5E0FBDE8104046
:1044600004BF002100207047BDE8104070B5FFF781
:104470002FFE00BF40DFF63E83F00041104670473C
:104480000000E0FF90EA010F48BF81F0004100F119
:104490000681421A3CBF801A89184FEAD0524FF069
:1044A0007F4C1CEA410FA2EBD15318BF9CEA026F6C
:1044B00000F03B804FF0004C4CEA00204CEA012118
:1044C00021FA03FC10EB0C0C1ED202F1FF325FEA62
:1044D0001C2040EBC25038BF70471CF07F0F4FEAE2
:1044E000400C18BFBCF17F4F38BF7047C3F12003A9
:1044F000994008BF20F00100BCF17F4F38BF7047E2
:10450000A0F1C04000F0BEB84FEA3C00000A40EB0A
:10451000C25028BF1CF0FF0F4FEA400CE6D018BF76
:10452000BCF17F4F38BF7047EAE79CEA026F05D0C5
:1045300010EA5C0F08BF00F00040704710B500F0B3
:104540005BF800BF64FBBE3E401058BFC0F1404066
:10455000491058BFC1F140418142EFF300807047DC
:1045600010F0004148BF4042B0FA80F310FA03F265
:10457000C3F19D030BD051EAC35101EB1220530646
:1045800038BF704700F1010008BF20F001007047FC
:1045900050EA010C00F113801CF5000F58BFBCF568
:1045A000000F01D48842704707D710F5000F58BF9D
:1045B00011F5000F15D488427047894270471CF5E9
:1045C000000F04D5BCF5000FF7D5814270474FF0BE
:1045D000807C1CEB400F38BF1CEB410F01D28142A5
:1045E000704710B500F008F8922449004FF00050D1
:1045F0004FF08051FFF7A8BF0EF1020E2EF0030E10
:104600005EF8044B244204D44FEA4102B2F17F4FDA
:1046100011D84FEA4003B3F17F4F0CD80ED14FEAC7
:10462000D07CB2F17F4F0CEB4C0C0CF1020C08BFAC
:104630004CEBD17C04E04FF0080C01E04FEAD17C58
:104640000CEB4C0324FA03F404F00704B4F1040C5B
:1046500006D20EEB840CBDE810404CF0010C604714
:10466000DFE80CF0070802024FF00040A0F58000E0
:1046700010BD0846420018BFD2F1807288BF00F01A
:10468000004010BDFF2141EAD050C0057047000036
:1046900090EA010F48BF81F000413FF5FAAE421A9F
:1046A00004D882F00042A0EB020011444FEAD0523D
:1046B0004FF07F4C1CEA410FA2EBD15318BF9CEA8C
:1046C000026F4AD04FF0004C4CEA00204CEA012126
:1046D00021FA03FCB0EB0C0C0FD412F0FE0F36D015
:1046E0005FEA4C001DD5001240EBC25038BF704746
:1046F0001CF03F0F18BF70470BE0A2F101025FEA08
:104700001C2040EBC25038BF70471CF07F0F18BF11
:104710007047C3F12003994014BF401E20F00100F0
:10472000704780084FEA122308BF7047B0FA80FC38
:10473000A2EB0C02CCF1280C60FA0CF093EA122FD9
:1047400004BF00EBC25070474FEAC3707047130AB2
:104750005FEADC1008BF7047F6E79CEA026F04D0FE
:1047600010EA5C0F08BF0020704710B5FFF744FF48
:1047700040DFF63E81F000407047FCF7ECB9FCF7F3
:1047800021BB0CF00F03092B08BF082000F0598053
:104790000A2B0BD0082B18BF704708BF1CF0400F26
:1047A0000AD04FF000004FF0000170471CF0400F9E
:1047B00018BF4FF0004070471CF0100F08D020F0D9
:1047C000704300F07F4242EAD3014FEA43707047E2
:1047D00000F0604021F07F4242EA000201F07F4099
:1047E00040EA727070474FF0FF0C4CF4E06C1CEA2A
:1047F00011531CBF9CEA030C9445C2BFDA4201EB83
:1048000002517047002B0DD0BCF1000F0FD0002AD1
:1048100001F00041A4BF41F0E04141F07F614FF061
:104820000000704701F000414FF00000704750EA6F
:1048300001334FF09B0C18BF4CF0806C7FF46EA9D5
:1048400070471CF4801F11D01CF4E02F03D06FEAD6
:10485000CC31490070474FF04050EFF3008222F016
:10486000704242EA000282F3008870474FF0000075
:104870007047000000000000000000000000000081
:104880000000000000F800000000000000333000CD
:10489000000000160E00160E0000000000000000D0
:1048A000000040C07840C0784000043F04043F044A
:1048B0000400007088FC08300000001820FF211E52
:1048C0000000F008F000E018000000211C031E2189
:1048D0001E0000F00888700000001E212324192704
:1048E0002110000000160E00000000000000000073
:1048F0000000000000E0180402000000000718207B
:10490000400000020418E0000000004020180700EA
:104910000000404080F0804040000202010F010290
:104920000200000000F0000000000101011F010171
:104930000100000000000000000000B07000000056
:104940000000000000000000000000010101010162
:1049500001010000000000000000003030000000F5
:1049600000000000000080601804006018060100CC
:10497000000000E010080810E000000F10202010D8
:104980000F00001010F8000000000020203F202041
:1049900000000070080808887000003028242221D8
:1049A000300000300888884830000018202020118E
:1049B0000E000000C02010F8000000070424243F6F
:1049C000240000F808888808080000192120201118
:1049D0000E0000E0108888180000000F1120201140
:1049E0000E0000380808C83808000000003F00002A
:1049F00000000070880808887000001C2221212215
:104A00001C0000E010080810E00000003122221114
:104A10000F00000000C0C0000000000000303000A7
:104A20000000000000C0C0000000000080B0700066
:104A3000000000008040201008000001020408105F
:104A4000200040404040404040000404040404046E
:104A5000040000081020408000000020100804021C
:104A60000100007048080808F0000000003036011E
:104A70000000C030C828E810E000071827242314DD
:104A80000B000000C038E0000000203C2302022799
:104A9000382008F8888888700000203F20202011E6
:104AA0000E00C03008080808380007182020201021
:104AB000080008F808080810E000203F2020201017
:104AC0000F0008F88888E8081000203F20202320E5
:104AD000180008F88888E8081000203F200003002C
:104AE0000000C03008080838000007182020221EE7
:104AF000020008F808000008F808203F2101012101
:104B00003F20000808F8080800000020203F20206F
:104B1000000000000808F8080800C08080807F00BE
:104B2000000008F888C028180800203F2001263817
:104B3000200008F8080000000000203F202020206E
:104B4000300008F8F800F8F80800203F003F003F68
:104B5000200008F830C00008F808203F200007189F
:104B60003F00E01008080810E0000F10202020107F
:104B70000F0008F808080808F000203F2101010193
:104B80000000E01008080810E0000F182424385036
:104B90004F0008F8888888887000203F2000030CA8
:104BA00030200070880808083800003820212122B1
:104BB0001C00180808F8080818000000203F200012
:104BC000000008F808000008F808001F2020202036
:104BD0001F000878880000C83808000007380E0158
:104BE0000000F80800F80008F800033C0700073C44
:104BF0000300081868808068180820302C03032CF4
:104C000030200838C800C83808000000203F2000C5
:104C1000000010080808C838080020382621202085
:104C20001800000000FE020202000000007F404069
:104C30004000000C30C000000000000000010638F9
:104C4000C00000020202FE000000004040407F0061
:104C500000000020100804081020000000000000E0
:104C60000000000000000000000080808080808044
:104C70008080000204080000000000000000000026
:104C80000000000080808080000000192422222281
:104C90003F2008F8008080000000003F1120201114
:104CA0000E000000008080800000000E11202020F7
:104CB0001100000000808088F800000E11202010F4
:104CC0003F200000808080800000001F22222222DE
:104CD0001300008080F0888888180020203F202062
:104CE00000000000808080808000006B949494938A
:104CF000600008F8008080800000203F2100002034
:104D00003F2000809898000000000020203F2020D5
:104D10000000000000809898000000C08080807F24
:104D2000000008F8000080808000203F24022D3021
:104D30002000000808F8000000000020203F20208C
:104D400000008080808080808000203F20003F2005
:104D5000003F008080008080000000203F21002074
:104D60003F200000808080800000001F2020202045
:104D70001F00808000808000000080FFA1202011A3
:104D80000E000000008080808000000E112020A016
:104D9000FF80808080008080800020203F212000D4
:104DA00001000000808080808000003324242424BF
:104DB0001900008080E0808000000000001F20209B
:104DC00000008080000000808000001F2020201054
:104DD0003F20808080000080808000010E30080627
:104DE000010080800080008080800F300C030C3038
:104DF0000F0000808000808080000020312E0E3166
:104E00002000808080000080808080818E70180665
:104E1000010000808080808080000021302C2221D1
:104E2000300000000000807C020200000000003F13
:104E3000404000000000FF00000000000000FF00F4
:104E400000000002027C800000000040403F0000A3
:104E50000000008040408000008000000000000151
:104E600001000000000000000000002F0000000012
:104E70000700070000147F147F1400242A7F2A12E1
:104E800000231308646200364955225000000007D1
:104E9000000000001C224100000041221C00001400
:104EA000083E08140008083E0808000000A0600042
:104EB00000080808080800006060000000201008D2
:104EC0000402003E5149453E0000427F400000423E
:104ED00061514946002141454B31001814127F10A1
:104EE000002745454539003C4A49493000017109D0
:104EF000050300364949493600064949291E000084
:104F0000363600000000563600000008142241002A
:104F1000001414141414000041221408000201515A
:104F20000906003E4955592E007C1211127C007F63
:104F300049494936003E41414122007F4141221CFE
:104F4000007F49494941007F09090901003E414963
:104F5000497A007F0808087F0000417F4100002057
:104F600040413F01007F08142241007F4040404003
:104F7000007F020C027F007F0408107F003E414149
:104F8000413E007F09090906003E4151215E007F34
:104F9000091929460046494949310001017F0101AB
:104FA000003F4040403F001F2040201F003F40384E
:104FB000403F00631408146300070870080700618D
:104FC0005149454300007F41410000020408102080
:104FD000000041417F000004020102040040404003
:104FE0004040000001020400002054545478007F27
:104FF0004844443800384444442000384444487FFE
:1050000000385454541800087E0901020018A4A462
:10501000A47C007F080404780000447D4000004028
:1050200080847D00007F102844000000417F400004
:10503000007C04180478007C080404780038444498
:10504000443800FC242424180018242418FC007C74
:105050000804040800485454542000043F444020ED
:10506000003C4040207C001C2040201C003C403084
:10507000403C004428102844001CA0A0A07C004410
:1050800064544C440000087F41000000007F000091
:105090000000417F0800000804081008EFBC8C00E5
:1050A0000000000000000000000000000000000000
:1050B0000000583800000000000000000000000060
:1050C000E3808200000000000000000000000000FB
:1050D0000000000000001824241800000000000058
:1050E00000000000E4BDA000008060F80740201828
:1050F0000F08C80808281800010000FF00100C0362
:1051000040807F0001061800E5A5BD001010F01FCB
:1051100010F000808282E2928A8680004022150888
:105120001661000040807F0000000000E4B8960097
:10513000202020FE2020FF202020FF2020202000F3
:105140000000007F40404744444447404040000046
:10515000E7958C00000000FE929292FE929292FEE1
:105160000000000008080484621E010001FE020421
:105170000408080000000000FF01010131090909CD
:1051800009897101010101FFFF8080808080809684
:1051900081808080808080FFFF01818181FD8991F5
:1051A000A1C1FD81818101FFFF808080809F888473
:1051B00082819F80808080FF00000000000000004E
:1051C000303132333435363738394142434445463D
:1051D0004030580030313233343536373839616237
:1051E0006364656640307800040000080000000039
:1051F000000000020001000010000000000000009C
:105200004FBB610567ACDD3F182D4454FB21E93FDE
:105210009BF681D20B73EF3F182D4454FB21F93FCD
:10522000E2652F227F2B7A3C075C143326A6813C53
:10523000BDCBF07A8807703C075C143326A6913CFE
:10524000C4EB98999999C9BF711623FEC671BCBF6A
:105250006D9A74AFF2B0B3BF9AFDDE522DDEADBFD2
:105260002F6C6A2C44B4A2BF0D5555555555D53FEA
:10527000FF8300922449C23F6E204CC5CD45B73F05
:10528000513DD0A0660DB13FEB0D76244B7BA93F7D
:1052900011DA22E33AAD903F000000000000000068
:1052A000303132333435363738396162636465669C
:1052B0007870003031323334353637383941424333
:1052C000444546585000000002400000000000A085
:1052D0000000000005400000000000C800000000C1
:1052E0000C4000000000409C00000000194000003D
:1052F0000020BCBE0000000034400000BFC91B8E6F
:1053000000000004B5400000504BCFD06607E2CF4C
:10531000010000006C4100003E8251AADFEEA7347C
:1053200001000000D9420000DCB5A0E23A301F972E
:10533000FFFFFFFFB4450000FD25A0C8E9A3C14F52
:10534000FFFFFFFFFF3F00000000008000000000A3
:10535000FF3F00000000008000000000985400089B
:1053600000000020600A0000280100081C00000066
:1053700043000000F8FFFFFF0C0000000E000000DB
:105380000F0000002E00000010010000430000008C
:10539000F8FFFFFF00404040404040404040414156
:1053A00041414140404040404040404040404040FA
:1053B0004040404040050202020202020202020294
:1053C0000202020202202020202020202020200291
:1053D0000202020202029090909090901010101021
:1053E00010101010101010101010101010101010BD
:1053F0000202020202028888888888880808080851
:10540000080808080808080808080808080808081C
:105410000202020240000000000000000000000044
:10542000000000000000000000000000000000007C
:10543000000000000000000000000000000000006C
:10544000000000000000000000000000000000005C
:10545000000000000000000000000000000000004C
:10546000000000000000000000000000000000003C
:10547000000000000000000000000000000000002C
:10548000000000000000000000000000000000001C
:08549000000000000000000014
:04000005080000ED02
:00000001FF
